{
  "contractName": "Bank",
  "abi": [
    {
      "anonymous": false,
      "inputs": [
        {
          "indexed": false,
          "internalType": "uint256",
          "name": "amount",
          "type": "uint256"
        },
        {
          "indexed": true,
          "internalType": "address",
          "name": "depositedTo",
          "type": "address"
        }
      ],
      "name": "depositDone",
      "type": "event"
    },
    {
      "inputs": [],
      "name": "destroy",
      "outputs": [],
      "stateMutability": "nonpayable",
      "type": "function"
    },
    {
      "inputs": [],
      "name": "deposit",
      "outputs": [
        {
          "internalType": "uint256",
          "name": "",
          "type": "uint256"
        }
      ],
      "stateMutability": "payable",
      "type": "function"
    },
    {
      "inputs": [
        {
          "internalType": "uint256",
          "name": "amount",
          "type": "uint256"
        }
      ],
      "name": "withdraw",
      "outputs": [
        {
          "internalType": "uint256",
          "name": "",
          "type": "uint256"
        }
      ],
      "stateMutability": "nonpayable",
      "type": "function"
    },
    {
      "inputs": [],
      "name": "getBalance",
      "outputs": [
        {
          "internalType": "uint256",
          "name": "",
          "type": "uint256"
        }
      ],
      "stateMutability": "view",
      "type": "function"
    },
    {
      "inputs": [
        {
          "internalType": "address",
          "name": "recipient",
          "type": "address"
        },
        {
          "internalType": "uint256",
          "name": "amount",
          "type": "uint256"
        }
      ],
      "name": "transfer",
      "outputs": [],
      "stateMutability": "nonpayable",
      "type": "function"
    }
  ],
  "bytecode": "0x608060405273ab8483f64d9c6d1ecf9b849ae677dd3315835cb2600160006101000a81548173ffffffffffffffffffffffffffffffffffffffff021916908373ffffffffffffffffffffffffffffffffffffffff16021790555034801561006557600080fd5b50336000806101000a81548173ffffffffffffffffffffffffffffffffffffffff021916908373ffffffffffffffffffffffffffffffffffffffff160217905550610a50806100b56000396000f3fe60806040526004361061004a5760003560e01c806312065fe01461004f5780632e1a7d4d1461007a57806383197ef0146100b7578063a9059cbb146100ce578063d0e30db0146100f7575b600080fd5b34801561005b57600080fd5b50610064610115565b60405161007191906106ec565b60405180910390f35b34801561008657600080fd5b506100a1600480360381019061009c9190610738565b61015c565b6040516100ae91906106ec565b60405180910390f35b3480156100c357600080fd5b506100cc610291565b005b3480156100da57600080fd5b506100f560048036038101906100f091906107c3565b610307565b005b6100ff610537565b60405161010c91906106ec565b60405180910390f35b6000600260003373ffffffffffffffffffffffffffffffffffffffff1673ffffffffffffffffffffffffffffffffffffffff16815260200190815260200160002054905090565b60008060009054906101000a900473ffffffffffffffffffffffffffffffffffffffff1673ffffffffffffffffffffffffffffffffffffffff163373ffffffffffffffffffffffffffffffffffffffff16146101b757600080fd5b81600260003373ffffffffffffffffffffffffffffffffffffffff1673ffffffffffffffffffffffffffffffffffffffff16815260200190815260200160002054101561020357600080fd5b3373ffffffffffffffffffffffffffffffffffffffff166108fc839081150290604051600060405180830381858888f19350505050158015610249573d6000803e3d6000fd5b50600260003373ffffffffffffffffffffffffffffffffffffffff1673ffffffffffffffffffffffffffffffffffffffff168152602001908152602001600020549050919050565b60008054906101000a900473ffffffffffffffffffffffffffffffffffffffff1673ffffffffffffffffffffffffffffffffffffffff163373ffffffffffffffffffffffffffffffffffffffff16146102e957600080fd5b60003390508073ffffffffffffffffffffffffffffffffffffffff16ff5b80600260003373ffffffffffffffffffffffffffffffffffffffff1673ffffffffffffffffffffffffffffffffffffffff168152602001908152602001600020541015610389576040517f08c379a000000000000000000000000000000000000000000000000000000000815260040161038090610860565b60405180910390fd5b8173ffffffffffffffffffffffffffffffffffffffff163373ffffffffffffffffffffffffffffffffffffffff1614156103f8576040517f08c379a00000000000000000000000000000000000000000000000000000000081526004016103ef906108cc565b60405180910390fd5b6000600260003373ffffffffffffffffffffffffffffffffffffffff1673ffffffffffffffffffffffffffffffffffffffff168152602001908152602001600020549050610447338484610622565b600160009054906101000a900473ffffffffffffffffffffffffffffffffffffffff1673ffffffffffffffffffffffffffffffffffffffff1663fe73b27f3385856040518463ffffffff1660e01b81526004016104a6939291906108fb565b600060405180830381600087803b1580156104c057600080fd5b505af11580156104d4573d6000803e3d6000fd5b5050505081816104e49190610961565b600260003373ffffffffffffffffffffffffffffffffffffffff1673ffffffffffffffffffffffffffffffffffffffff168152602001908152602001600020541461053257610531610995565b5b505050565b600034600260003373ffffffffffffffffffffffffffffffffffffffff1673ffffffffffffffffffffffffffffffffffffffff168152602001908152602001600020600082825461058891906109c4565b925050819055503373ffffffffffffffffffffffffffffffffffffffff167f55b8d2fc1aaf27628691a3336b517d7b40bee36ba595a24e893d1e872afb82d1346040516105d591906106ec565b60405180910390a2600260003373ffffffffffffffffffffffffffffffffffffffff1673ffffffffffffffffffffffffffffffffffffffff16815260200190815260200160002054905090565b80600260008573ffffffffffffffffffffffffffffffffffffffff1673ffffffffffffffffffffffffffffffffffffffff16815260200190815260200160002060008282546106719190610961565b9250508190555080600260008473ffffffffffffffffffffffffffffffffffffffff1673ffffffffffffffffffffffffffffffffffffffff16815260200190815260200160002060008282546106c791906109c4565b92505081905550505050565b6000819050919050565b6106e6816106d3565b82525050565b600060208201905061070160008301846106dd565b92915050565b600080fd5b610715816106d3565b811461072057600080fd5b50565b6000813590506107328161070c565b92915050565b60006020828403121561074e5761074d610707565b5b600061075c84828501610723565b91505092915050565b600073ffffffffffffffffffffffffffffffffffffffff82169050919050565b600061079082610765565b9050919050565b6107a081610785565b81146107ab57600080fd5b50565b6000813590506107bd81610797565b92915050565b600080604083850312156107da576107d9610707565b5b60006107e8858286016107ae565b92505060206107f985828601610723565b9150509250929050565b600082825260208201905092915050565b7f42616c616e6365206e6f742073756666696369656e7400000000000000000000600082015250565b600061084a601683610803565b915061085582610814565b602082019050919050565b600060208201905081810360008301526108798161083d565b9050919050565b7f446f6e2774207472616e73666572206d6f6e657920746f20796f757273656c66600082015250565b60006108b6602083610803565b91506108c182610880565b602082019050919050565b600060208201905081810360008301526108e5816108a9565b9050919050565b6108f581610785565b82525050565b600060608201905061091060008301866108ec565b61091d60208301856108ec565b61092a60408301846106dd565b949350505050565b7f4e487b7100000000000000000000000000000000000000000000000000000000600052601160045260246000fd5b600061096c826106d3565b9150610977836106d3565b92508282101561098a57610989610932565b5b828203905092915050565b7f4e487b7100000000000000000000000000000000000000000000000000000000600052600160045260246000fd5b60006109cf826106d3565b91506109da836106d3565b9250827fffffffffffffffffffffffffffffffffffffffffffffffffffffffffffffffff03821115610a0f57610a0e610932565b5b82820190509291505056fea2646970667358221220163a8711a282102e1c71534e00cfbd4c5ec48c9ca9278771c4f6b2ea5368fbe764736f6c634300080a0033",
  "immutableReferences": {},
  "source": "// SPDX-License-Identifier: MIT\r\npragma solidity ^0.8.10;\r\n\r\nimport \"./Ownable.sol\";\r\nimport \"./Destroyable.sol\";\r\n\r\n\r\n/**\r\n * @title  Bank  \r\n * @author Lodgerio Padlan\r\n * @dev    Complete Steps to call an EXTERNAL smart contract   \r\n\r\n            Steps:\r\n            1. get the address of the contract we need to interact with\r\n            2. know the smart contract's location\r\n            3. know the smart contract's function's definition are e.g. its parameters, return values\r\n            4. then interact with it and add its address\r\n          \r\n            5. optional, sending money to an external call\r\n\r\n                5.1. add payable\r\n                    // from Bank.sol\r\n                    interface GovernmentInterface {\r\n                       function addTransaction(address _from, address _top, uint _amount) external payable; \r\n                    }\r\n\r\n                    // from Government.sol\r\n                    function addTransaction(address _ from, address _top, uint _amount) external payable{\r\n                            logs.push(Transaction(_from, _to, _amount, logs.length));\r\n                    }\r\n\r\n                5.2. add {value}\r\n                    instance.addTransaction{value: 1 ether}.(msg.sender, recipient, amount);                     \r\n\r\n            Test\r\n            1. deploy Bank.sol\r\n            2. In Remix, click 'Deposit\", Value = 2 ether\r\n            3. grab another address (call it address 2)\r\n            4. paste address 2 besides the transfer(address recipient, uint amount) button and an amount\r\n               then click transfer\r\n            5. Then go to the Government smart contract and click \"getTransaction\"\r\n\r\n\r\n * @notice A simply smart contract to demonstrate External calls    \r\n           It requires the bank to report all the bank transactions \r\n*/\r\n\r\n    // step (2) and (3)\r\n    interface GovernmentInterface {\r\n        function addTransaction(address _from, address _top, uint _amount) external; \r\n    }\r\n\r\n\r\ncontract Bank is Ownable, Destroyable {\r\n    \r\n    // step (4a)\r\n    GovernmentInterface instance  = GovernmentInterface(0xAb8483F64d9C6d1EcF9b849Ae677dD3315835cb2);\r\n\r\n    mapping(address => uint) balance;\r\n    \r\n    event depositDone(uint amount, address indexed depositedTo);\r\n    \r\n    function deposit() public payable returns (uint)  {\r\n        balance[msg.sender] += msg.value;\r\n        emit depositDone(msg.value, msg.sender);\r\n        return balance[msg.sender];\r\n    }\r\n    \r\n    function withdraw(uint amount) public onlyOwner returns (uint){\r\n        require(balance[msg.sender] >= amount);\r\n        payable(msg.sender).transfer(amount);\r\n        return balance[msg.sender];\r\n    }\r\n    \r\n    function getBalance() public view returns (uint){\r\n        return balance[msg.sender];\r\n    }\r\n    \r\n    function transfer(address recipient, uint amount) public {\r\n        require(balance[msg.sender] >= amount, \"Balance not sufficient\");\r\n        require(msg.sender != recipient, \"Don't transfer money to yourself\");\r\n        \r\n        uint previousSenderBalance = balance[msg.sender];\r\n        \r\n        _transfer(msg.sender, recipient, amount);\r\n        \r\n        // step (4b)\r\n        instance.addTransaction(msg.sender, recipient, amount);\r\n        \r\n  \r\n\r\n\r\n        assert(balance[msg.sender] == previousSenderBalance - amount);\r\n    }\r\n    \r\n    function _transfer(address from, address to, uint amount) private {\r\n        balance[from] -= amount;\r\n        balance[to] += amount;\r\n    }\r\n    \r\n} \r\n",
  "sourcePath": "D:\\blockchain\\externalTruffleProject\\contracts\\Bank.sol",
  "compiler": {
    "name": "solc",
    "version": "0.8.10+commit.fc410830.Emscripten.clang"
  },
  "schemaVersion": "3.4.4",
  "updatedAt": "2022-01-06T12:02:11.628Z",
  "devdoc": {
    "kind": "dev",
    "methods": {},
    "version": 1
  },
  "userdoc": {
    "kind": "user",
    "methods": {},
    "version": 1
  }
}