{
  "contractName": "Destroyable",
  "abi": [
    {
      "inputs": [],
      "name": "destroy",
      "outputs": [],
      "stateMutability": "nonpayable",
      "type": "function"
    }
  ],
  "bytecode": "0x608060405234801561001057600080fd5b50336000806101000a81548173ffffffffffffffffffffffffffffffffffffffff021916908373ffffffffffffffffffffffffffffffffffffffff16021790555060e08061005f6000396000f3fe6080604052348015600f57600080fd5b506004361060285760003560e01c806383197ef014602d575b600080fd5b60336035565b005b60008054906101000a900473ffffffffffffffffffffffffffffffffffffffff1673ffffffffffffffffffffffffffffffffffffffff163373ffffffffffffffffffffffffffffffffffffffff1614608c57600080fd5b60003390508073ffffffffffffffffffffffffffffffffffffffff16fffea26469706673582212204ecfdfd093e65306b759a23b7eedf8b5486f3c43e2bfc198b6c5dcfec9ff8bd764736f6c634300080a0033",
  "immutableReferences": {},
  "source": "// SPDX-License-Identifier: MIT\r\npragma solidity ^0.8.10;\r\nimport \"./Ownable.sol\";\r\n\r\n\r\n/**\r\n * @title  Destroyable  \r\n * @author Lodgerio Padlan\r\n * @dev    https://articles.caster.io/blockchain/self-destructing-smart-contracts-in-ethereum/    \r\n * @notice A simply smart contract to demonstrate External calls    \r\n           It requires the bank to report all the bank transactions \r\n*/\r\n\r\ncontract Destroyable is Ownable {\r\n\r\n  function destroy() public onlyOwner {\r\n    address payable receiver = payable(msg.sender);\r\n    selfdestruct(receiver);\r\n  }\r\n}",
  "sourcePath": "D:\\blockchain\\externalTruffleProject\\contracts\\Destroyable.sol",
  "compiler": {
    "name": "solc",
    "version": "0.8.10+commit.fc410830.Emscripten.clang"
  },
  "schemaVersion": "3.4.4",
  "updatedAt": "2022-01-06T12:02:11.643Z",
  "devdoc": {
    "author": "Lodgerio Padlan",
    "details": "https://articles.caster.io/blockchain/self-destructing-smart-contracts-in-ethereum/    ",
    "kind": "dev",
    "methods": {},
    "title": "Destroyable  ",
    "version": 1
  },
  "userdoc": {
    "kind": "user",
    "methods": {},
    "notice": "A simply smart contract to demonstrate External calls     It requires the bank to report all the bank transactions ",
    "version": 1
  }
}