{
  "contractName": "Government",
  "abi": [
    {
      "inputs": [
        {
          "internalType": "address",
          "name": "_from",
          "type": "address"
        },
        {
          "internalType": "address",
          "name": "_to",
          "type": "address"
        },
        {
          "internalType": "uint256",
          "name": "_amount",
          "type": "uint256"
        }
      ],
      "name": "addTransaction",
      "outputs": [],
      "stateMutability": "nonpayable",
      "type": "function"
    },
    {
      "inputs": [
        {
          "internalType": "uint256",
          "name": "_index",
          "type": "uint256"
        }
      ],
      "name": "getTransaction",
      "outputs": [
        {
          "internalType": "address",
          "name": "",
          "type": "address"
        },
        {
          "internalType": "address",
          "name": "",
          "type": "address"
        },
        {
          "internalType": "uint256",
          "name": "",
          "type": "uint256"
        }
      ],
      "stateMutability": "view",
      "type": "function"
    },
    {
      "inputs": [],
      "name": "getBalance",
      "outputs": [
        {
          "internalType": "uint256",
          "name": "",
          "type": "uint256"
        }
      ],
      "stateMutability": "view",
      "type": "function"
    }
  ],
  "bytecode": "0x608060405234801561001057600080fd5b50610491806100206000396000f3fe608060405234801561001057600080fd5b50600436106100415760003560e01c806312065fe01461004657806333ea3dc814610064578063fe73b27f14610096575b600080fd5b61004e6100b2565b60405161005b91906102bc565b60405180910390f35b61007e60048036038101906100799190610308565b6100ba565b60405161008d93929190610376565b60405180910390f35b6100b060048036038101906100ab91906103d9565b61017d565b005b600047905090565b60008060008084815481106100d2576100d161042c565b5b906000526020600020906004020160000160009054906101000a900473ffffffffffffffffffffffffffffffffffffffff16600085815481106101185761011761042c565b5b906000526020600020906004020160010160009054906101000a900473ffffffffffffffffffffffffffffffffffffffff166000868154811061015e5761015d61042c565b5b9060005260206000209060040201600201549250925092509193909250565b600060405180608001604052808573ffffffffffffffffffffffffffffffffffffffff1681526020018473ffffffffffffffffffffffffffffffffffffffff168152602001838152602001600080549050815250908060018154018082558091505060019003906000526020600020906004020160009091909190915060008201518160000160006101000a81548173ffffffffffffffffffffffffffffffffffffffff021916908373ffffffffffffffffffffffffffffffffffffffff16021790555060208201518160010160006101000a81548173ffffffffffffffffffffffffffffffffffffffff021916908373ffffffffffffffffffffffffffffffffffffffff16021790555060408201518160020155606082015181600301555050505050565b6000819050919050565b6102b6816102a3565b82525050565b60006020820190506102d160008301846102ad565b92915050565b600080fd5b6102e5816102a3565b81146102f057600080fd5b50565b600081359050610302816102dc565b92915050565b60006020828403121561031e5761031d6102d7565b5b600061032c848285016102f3565b91505092915050565b600073ffffffffffffffffffffffffffffffffffffffff82169050919050565b600061036082610335565b9050919050565b61037081610355565b82525050565b600060608201905061038b6000830186610367565b6103986020830185610367565b6103a560408301846102ad565b949350505050565b6103b681610355565b81146103c157600080fd5b50565b6000813590506103d3816103ad565b92915050565b6000806000606084860312156103f2576103f16102d7565b5b6000610400868287016103c4565b9350506020610411868287016103c4565b9250506040610422868287016102f3565b9150509250925092565b7f4e487b7100000000000000000000000000000000000000000000000000000000600052603260045260246000fdfea264697066735822122075fb7f89fdfe59de97bff7bb520e1fc795f69e18dfba8451690af521b776eabd64736f6c634300080a0033",
  "immutableReferences": {},
  "source": "// SPDX-License-Identifier: MIT\r\npragma solidity ^0.8.10;\r\n\r\n/**\r\n * @title  Government  \r\n * @author Lodgerio Padlan\r\n * @dev    For demo purposess, deploy this one first to get its smart contract    \r\n * @notice A simply smart contract to demonstrate External calls    \r\n           It requires the bank to report all the bank transactions \r\n*/\r\n\r\n contract Government {\r\n\r\n     struct Transaction {\r\n\r\n         address from;\r\n         address to;\r\n         uint amount;\r\n         uint transactionId;\r\n     }\r\n\r\n        Transaction[] logs;\r\n\r\n        function addTransaction(address _from, address _to, uint _amount) external {\r\n            logs.push(Transaction(_from, _to, _amount, logs.length));\r\n        }\r\n\r\n        function getTransaction(uint _index) public view returns(address, address, uint) {\r\n            return(logs[_index].from, logs[_index].to, logs[_index].amount);\r\n        }\r\n\r\n         function getBalance() public view returns(uint) {\r\n            return address(this).balance;\r\n         }   \r\n\r\n }\r\n",
  "sourcePath": "D:\\blockchain\\externalTruffleProject\\contracts\\Government.sol",
  "compiler": {
    "name": "solc",
    "version": "0.8.10+commit.fc410830.Emscripten.clang"
  },
  "schemaVersion": "3.4.4",
  "updatedAt": "2022-01-06T12:02:11.646Z",
  "devdoc": {
    "author": "Lodgerio Padlan",
    "details": "For demo purposess, deploy this one first to get its smart contract    ",
    "kind": "dev",
    "methods": {},
    "title": "Government  ",
    "version": 1
  },
  "userdoc": {
    "kind": "user",
    "methods": {},
    "notice": "A simply smart contract to demonstrate External calls     It requires the bank to report all the bank transactions ",
    "version": 1
  }
}